:100000004EEF01F00000000000EF00F000000000E3
:0A0010000000000000000000F3D71C
:10001C0021C0C9FFC7B002D00000FCD7C9CF00F087
:02002C001200C0
:10002E008290300EC96E9EB601D0FDD79E96C96ADB
:10003E009EB601D0FDD79E96300E216EE8DF216A66
:10004E00E6DF8280820E0C6EDD0E0D6E0D2EFED75B
:10005E000C2EFCD70000000082903F0E216ED7DFE1
:10006E00AC0E216ED4DF8280820E0C6EDD0E0D6E14
:10007E000D2EFED70C2EFCD7000000008290300E05
:10008E00216EC5DF216AC3DF8280820E0C6EDD0E0B
:10009E000D6E0D2EFED70C2EFCD7000000008290A8
:1000AE00300E216EB4DFFF0E216EB1DF8280820E24
:1000BE000C6EDD0E0D6E0D2EFED70C2EFCD7000035
:1000CE0000008290310E216EA2DF800E216E9FDF26
:1000DE008280820E0C6EDD0E0D6E0D2EFED70C2E56
:1000EE00FCD7000000008290310E216E90DFFF0ED3
:1000FE00216E8DDF8280820E0C6EDD0E0D6E0D2E4A
:10010E00FED70C2EFCD7000000008290320E216E1E
:10011E007EDFFF0E216E7BDF8280820E0C6EDD0E87
:10012E000D6E0D2EFED70C2EFCD700000000829017
:10013E003F0E216E6CDFFF0E216E69DF8280820E14
:10014E000C6EDD0E0D6E0D2EFED70C2EFCD70000A4
:10015E0000008290320E216E5ADFFF0E216E57DFA5
:10016E008280820E0C6EDD0E0D6E0D2EFED70C2EC5
:10017E00FCD7000000008290310E216E48DFFF0E8A
:10018E00216E45DF8280820E0C6EDD0E0D6E0D2E01
:10019E00FED70C2EFCD7000000008290310E216E8F
:1001AE0036DF800E216E33DF8280820E0C6EDD0E06
:1001BE000D6E0D2EFED70C2EFCD700000000300E5B
:1001CE001D6E000E1E6E800E1E18006E800E005CE0
:1001DE0002E1FF0E1D5C17E21F6A206A800E2018D6
:1001EE00006E800E005C02E1FF0E1F5C09E21DC076
:1001FE0021F00DDF1FC021F00ADF1F4A202AEED7A3
:10020E001D4A1E2AE0D7FF0E1D6E000E1E6E800EBA
:10021E00006E800E1E18005C02E11D5030081DE2BB
:10022E00FF0E1F6E000E206E800E006E800E2018C8
:10023E00005C02E11F5000080BE21DC021F0E7DE5A
:10024E001FC021F0E4DE010E1F5E000E205AECD717
:0E025E00010E1D5E000E1E5ADAD782801200BD
:10026C00FF0E196EFF0E1A6EFF0E1B6EFF0E1C6E2C
:10027C001C0E156E000E166E210E176E000E186EEB
:10028C00949A94969488C66A400EC76EC68A1200D9
:10029C0082809490E5DF820E0C6EDD0E0D6E0D2EBD
:1002AC00FED70C2EFCD700000000BBDEFED7FFD71C
:020000040030CA
:0D000100011A1EFF8381FF0FC00FE00F40AA
:00000001FF
